:020000041000EA
:10000000002000081B0100100D0000007D01001001
:1000100000000000000000000000000000000000E0
:100020000000000000000000000000007901001046
:1000300000000000000000007901001079010010AC
:100040007901001079010010790100107901001088
:100050007901001079010010790100107901001078
:100060007901001079010010790100107901001068
:100070007901001079010010790100107901001058
:100080000448054B10B5834203D0044B002B00D02D
:10009000984710BD780300087803000800000000AE
:1000A00006480749091A8B10C90FC91810B549101D
:1000B00003D0044B002B00D0984710BD78030008F4
:1000C000780300080000000010B5074C2378002BCF
:1000D00009D1FFF7D5FF054B002B02D0044800E003
:1000E00000BF0123237010BDB00300080000000012
:1000F00094150010054B10B5002B03D0044905489A
:1001000000E000BFFFF7CCFF10BDC04600000000BC
:10011000B4030008941500107047FFF7FDFF72B696
:100120000F4C104DAC4209DA21686268A368043BA9
:1001300002DBC858D050FAE70C34F3E70A490B4AFF
:100140000020521A02DD043A8850FCDC08480949B4
:100150000860BFF34F8F00F06FF800F01DF8FEE766
:10016000A0150010B8150010B0030008C80500085D
:100170000000000808ED00E0FEE7FEE700B50420FF
:100180007146084202D0EFF3098002E0EFF30880E5
:10019000043000F0BBFDFEE710B562B6034800F086
:1001A000C3F8002000F0BAFEFBE7C04600200010B4
:1001B00010B5002000F090FA10BD704770B5002017
:1001C00000F0EEFC041E28D0144B186000F064FB15
:1001D000411C200000F080FF114B0400186000F06B
:1001E0004DFB411C200000F077FF04000D4B013C4B
:1001F00018600D49200000F06FFFFA210B4D01300F
:1002000028708900200000F067FF094D0130286048
:10021000002000F0C5FC074B186070BD8800000886
:100220008C0000088000000840420F009400000885
:10023000900000088400000810B5204800F0ACF8D9
:10024000B022E02130201E4CD200A35889005B0070
:100250005B08A35063588343635080235B04A3501F
:10026000184B194AE250A02204339201E250FF22B7
:10027000164BE25000F014FFC02201215200A35897
:100280008B43A350FFF799FFFFF798FF104B032014
:100290001A681300BA33198807234B43126A802166
:1002A0009B180022DA605A600A4A00F05FFA0A4896
:1002B00000F022F9094800F05BF910BDD4140010D9
:1002C0000000264084050000010002008C050000AB
:1002D0004C05000878030008CC030008A0140010A7
:1002E0009023034A5B01D058032318407047C0464F
:1002F0000000204010B5902400F047F8074B64013F
:100300001959074A1140074A0A431A5110225968DD
:100310001142FCD000F03DF810BDC0460000204066
:10032000FCFF00000100FA05F8B590260E4C76019E
:10033000070000F02AF8A3590500DB439B0701D111
:10034000FFF7D8FF80239B00E750A259074B1A40C4
:10035000074B1343A351102362681A42FCD02800B4
:1003600000F017F8F8BDC04600002040FCFF000078
:100370000300FA05000000000230800803D00130BD
:100380000238FCD1C046C0467047EFF3108072B609
:10039000704780F310887047014B18607047C04663
:1003A0004C050008044B1B681A00BA3212881B6AFD
:1003B0005043C0187047C0464C050008A02300B544
:1003C0001B06984226D015D8802825D00AD8102898
:1003D00024D0402824D000280BD0154809E0A420C0
:1003E000C00306E08022134B520090421CD098427A
:1003F000F3D100BD104B984218D0104BC018042800
:10040000EBD800F05FFEECEA0F0305000C48F0E7C4
:100410000C48EEE70020ECE70B48EAE70B48E8E77A
:100420000B48E6E70B48E4E71800E2E7A020D7E72F
:10043000FF00520006005200090000A0FFFFFF0F5E
:10044000020052000300520005005200010050005B
:10045000020050000100520010B50020FFF7A2FF7B
:100460000A4B1C682300BC331B68C0180368002BB0
:100470000ADB074B1868FFF7A1FF012263689A6047
:100480009A68002AFCD110BD0248FCE74C05000820
:100490005005000802005000064B1B68BC331B6867
:1004A000C3181B68002B03DA89B241600020704733
:1004B0000148FCE74C05000801008A000368002B96
:1004C00004DA89B2C2608160002070470048FCE70E
:1004D00001008A00064B1B68BC331B68C3181B68ED
:1004E000002B03DAC36800200B6070470148FCE76B
:1004F0004C05000801008A00024B1A68002A00D14E
:100500001860704764050008F0B52C24154E44436C
:1005100030681F000019FF241E0A26402740124C95
:100520001B0C256807602C6A46608360BA352D88ED
:100530006F433F190761370080377F01E7190B4D83
:1005400076014761A4191F043B436419236000230B
:100550008361059BC2610162002B01D01B888381EE
:10056000F0BDC046640500084C05000808100000F6
:10057000F0B50400236987B0026841680393A3685B
:1005800004AD1732C0682B806A80039BA26A059174
:100590000095E16A266A676AFFF7B6FF00213B0013
:1005A0000A0030000091FFF7AFFF2800216B00F038
:1005B00077FB0022AB5E002B06DB1F2213401E3AA6
:1005C0009A401300014A136007B0F0BD00E100E05B
:1005D000F0B585B003931B4B16001C682C235843C1
:1005E0004B4320180769E418002F27D0A569002D78
:1005F00026D13B68002B23DA134B1B6834331B785E
:100600000193436801996068029300F0EBFD0122B9
:100610008A40336812049BB2134333600123FE60A7
:10062000A361039B01996362029800F0DBFD012343
:100630008B409BB2BB60280005B0F0BD034DFAE7CC
:10064000034DF8E7640500084C05000804028A0021
:1006500007028A0073B5002642690400D568019636
:100660002B0CB34221D01B0413601368194B006993
:100670001B68BC331B68C3181B68B34215DA01A999
:10068000FFF728FFB0420CD10198E26903681E0C05
:10069000DBB29A4205D9226A9B009B58002B00D0FE
:1006A000984731002069FFF7F7FEADB2002D09D061
:1006B00063691D6000251B68636AAB4205D09847DB
:1006C0006562A56163691B6873BDA36A002BF8D0DE
:1006D0009847F6E74C0500082C2310B54343034A1E
:1006E0001068C018FFF7B6FF10BDC04664050008CB
:1006F0001A4B70B51A680C00130033331B78834211
:100700002AD9002928D00D681F212B000B400D424B
:1007100022D11100BA310988126A48431900104DDC
:100720008018286022685209934210D30021FFF7F5
:10073000B3FE002122002868FFF7C0FE011E04D18D
:100740002868FFF7A9FE002800D0064870BD62683F
:100750009E00B1500133E5E70348F7E74C05000878
:100760006805000801018A0003018A000B0010B52A
:10077000002A0DD1002914D10B4A0C4C11680A0033
:10078000BA321288096A424352182260180010BD1A
:10079000002906D006490B604A60FFF7A9FF030055
:1007A000F4E7044BF2E7C0464C0500086805000872
:1007B0008803000803018A00F7B51B4F04003B685B
:1007C0000E00002B2BD0DB681A68824229D9002545
:1007D0005B680193A94202D1FFF7D7FD0500386895
:1007E0000368002B19DA1F23012223409A40640971
:1007F000019BA4001C1921680A420CD0914321607E
:1008000000240021FFF748FE002E02D12800FFF748
:10081000C0FD2000FEBD054CF3E7054CF4E7034C9A
:10082000F7E7044CF5E7C0466805000802018800B8
:100830000301880004018A000C4B1B68002B11D0B7
:10084000DB681A6882420FD959681F234209184091
:100850001E3B8340920050581840431E9841044B61
:10086000C01870470348FCE70348FAE7680500082A
:10087000000188000201880004018A00054B1B6802
:100880001A0088321B6812689B181868000AC0B2E8
:100890007047C0464C050008044B1B681A0088329C
:1008A0001B6812689B181868000E70474C050008FA
:1008B000034BE0308000C0588006800F7047C04670
:1008C00000002640024B18694007C00F7047C04621
:1008D00000002740A6220549D2008B580220DB43A6
:1008E0009B0702D00123885818407047000026401B
:1008F00010B5FFF7EFFF0023022801D1014B1B6861
:10090000180010BD70050008084A83009B18D0220B
:100910009200985807221040042806D1C022920065
:100920009B581F22FC30134018437047000026409C
:1009300010B5FFF7E9FF88235B0098421CD00BD865
:10094000012813D0022814D0431E9841104B404276
:100950001840104BC01810BD1223FF33984210D01E
:100960001423FF33984210D00020F4E70A4B186894
:10097000F1E7FFF7BDFFEEE7084A094BD058C00F7B
:1009800001E0FFF79FFFC003E5E7044A054BF5E7E9
:1009900000EE85FF00127A006C050008000026407A
:1009A0000C0500003C050000B023154ADB00D358BD
:1009B00010B59903DB01DB0F890BC371114B01608B
:1009C000D3580F24D904DB01DB0D0381B123DB00F5
:1009D000D358C90C81801900214081721909214026
:1009E000C172D9029B009B0F8373074BC90CD3586C
:1009F00081815A05DB01520FDB0D8271038210BD2C
:100A000000002640840500008C0500008030034B68
:100A1000FF308000C058C00F7047C046000026401D
:100A20000F4B421E1B683F331B78934216D9803010
:100A30007F220C4BFF308000C3581F201A400A70E1
:100A40001A0A02404A701A0C02408A701A01C24007
:100A500000209B009B0FCA700B7170470248FCE797
:100A60004C0500080000264001004A00F0B589B09E
:100A700003AD2800FFF798FFB0230026164ADB00DD
:100A8000D358B34224DAAB7B022B21D0AC88B442DA
:100A90001ED03000ED79039FFFF74AFF220033009C
:100AA00031000190681C00F0C3FB0C00050033000E
:100AB0003A003100019800F0BBFBE6076A083243B8
:100AC0006308801859412A00230000F091FB0600BA
:100AD000300009B0F0BDC04600002640F7B5234BFA
:100AE00006001B683F331B78002B08D000283BD042
:100AF000834204D36946FFF793FF041E01D000260A
:100B000032E03000FFF782FF2300002805D06B465B
:100B10001C79023C23005A1E93416A461778547888
:100B20009578002BEBD0002CE9D0002DE7D03000D9
:100B3000FFF7FEFE002306002A002000190000F047
:100B400077FB00230C0005003A003000190000F08C
:100B50006FFBE6076A0832436308801859412A0090
:100B6000230000F045FB06003000FEBD4C050008E8
:100B700010B5041E04D1FFF779FF002806D008E065
:100B8000064B1B683F331B78834203D22000FFF7DC
:100B9000CFFE10BDFFF7A2FFEFE7C0464C050008EF
:100BA00070B50500FFF784FEE035074BAD0004008B
:100BB000E8580F231840FFF7DBFF0123A3405B0831
:100BC0001818E04070BDC0460000264030B5FF2533
:100BD00003242A000440E400A24089012940D243B2
:100BE000A14083B200280ADBC0240B4B80088000A0
:100BF000C018A400035913400B43035130BD0F200C
:100C00000340083B05489B089B001B18D86902401D
:100C10000A43DA61F2E7C04600E100E000ED00E0DF
:100C2000144B30B51B6807241A002C3212781F2A87
:100C300015D882081500A5432C1E0FD1033420407F
:100C4000A04081401B68920020339B180A00FF21BE
:100C500081401C68624011406140196030BD1A68D3
:100C6000802320401B06034380208001091889004F
:100C70008B50F3E74C050008064B10B59A68064CFC
:100C800010308300A24202D19858995010BD034AF7
:100C9000D058FBE700ED00E0000000080000001065
:100CA000F7B504000E00002801D1144C17E0002312
:100CB000C55E134B4188134F0193002D11DB2800B3
:100CC000FFF7AEFF61682800FFF780FFBB68019A5D
:100CD0000024934203D131002800FFF7CDFF20000C
:100CE000FEBD08B26168FFF771FFBB68019A9342CD
:100CF000DBD131002800FFF7BFFFD6E70100560027
:100D00000000000800ED00E0FEE7000002680A4B6A
:100D100010B51A6042685A6082689A60C268DA60E8
:100D200002691A6142695A6182699A61C269DA612B
:100D3000FFF7EAFF10BDC04690030008B0235B0533
:100D40005A782120002A01D05878C0B27047B023C9
:100D50005B059A89002A02D0988980B2704780206A
:100D60004000FBE7254B73B586000D00F4580429BD
:100D700001D0012925D100200EE0A3682B420AD121
:100D8000E36829001A685B6868460193009223684B
:100D900098471B4B1C606469002C0AD0194B984281
:100DA000EBD1012DE9D1164A174B126815489A511B
:100DB00076BD012DFCD1134B9842F4D0124B9C51BF
:100DC000F6E7022914D026006469002CFBD100202C
:100DD000002EEDD0B3682B4208D1F36829001A68C1
:100DE0005B68684601930092336898473669EFE77D
:100DF000034B1B68181EDBD01E69E8E7B40500082A
:100E0000B0050008FF0042009C0500081A4B1B6853
:100E1000190088311A6809685118096801621900B7
:100E20008C3109685218126842621A0046321278F0
:100E3000002A1FD09A68E0321268D2061AD5F22230
:100E4000DB68D2019A580260F022D2019A584260BF
:100E50000A4A9A5882600A4A9A58C260094A9A58BD
:100E60000261094A9A584261084A9A588261084ABE
:100E70009B58C3617047C0464C05000804780000C9
:100E8000087800000C78000010780000147800004A
:100E9000187800001A4B1B681900883109681A6815
:100EA0005218016A116019008C3109681A685218C9
:100EB000416A11601A0046321278002A1ED09A68E0
:100EC000E0321268D20619D5F0224168DB68D201FF
:100ED000995081680B4A9950C1680B4A9950016931
:100EE0000A4A995041690A4A99508169094A9950B8
:100EF000C169094A99500168E83299507047C04663
:100F00004C05000804780000087800000C78000008
:100F1000107800001478000018780000F7B505007C
:100F2000FFF70CFF564F01907B68002B00D06FE05D
:100F3000FFF72BFA7B680090002B00D07CE0514B30
:100F400007271C682300BA331B885F43236AFB18FA
:100F50001A68002AFCDADB68DA001ED51B0F4A4843
:100F60001E07FFF753FF22008832126823684749A3
:100F70009B181A6801980A40212862D1902000012C
:100F800002431A6022008C32126823689B181A6888
:100F90000A40104318603C4B3343802292051343B0
:100FA000226A0024BF18FB607C607B68FFF7CFFEDD
:100FB0008023344F5B00984246D1280000F068FA45
:100FC0003F6807223B00BA331E883B6A5643F3183A
:100FD0001A68002AFCDADD68EB0003D52801000955
:100FE000FFF758FF00222A4B00981D403B6AF31878
:100FF000DD605A60FFF7CDF9002C10D1204B5B6803
:10100000002B03D008210120FFF7ACFE2000FEBD1D
:1010100001210800FFF7A6FE041E00D188E7184B47
:101020005B68002B03D002210120FFF79BFE194BC8
:101030009C42EBD0184CE9E704210120FFF792FE17
:101040007DE7802040009BE73B681A00BC32196AAC
:10105000126852181168002910DBBA331B889B18DC
:101060001B68002B0ADB04230C4A11690B43136134
:10107000012D01D030BFA3E720BFA1E7054C9FE7BA
:10108000B40500084C05000874050008FF00FFFFC8
:10109000FFFFFFDF05004200FF00420000ED00E01F
:1010A000C0228020064952008B58C0059B009B0837
:1010B00003438B50802388581B0603438B50704793
:1010C0000000264002B4714649084900095649000B
:1010D0008E4402BC7047C046002243088B4274D342
:1010E00003098B425FD3030A8B4244D3030B8B4229
:1010F00028D3030C8B420DD3FF22090212BA030C32
:101100008B4202D31212090265D0030B8B4219D312
:1011100000E0090AC30B8B4201D3CB03C01A524132
:10112000830B8B4201D38B03C01A5241430B8B427A
:1011300001D34B03C01A5241030B8B4201D30B0363
:10114000C01A5241C30A8B4201D3CB02C01A52418A
:10115000830A8B4201D38B02C01A5241430A8B424D
:1011600001D34B02C01A5241030A8B4201D30B0236
:10117000C01A5241CDD2C3098B4201D3CB01C01A50
:10118000524183098B4201D38B01C01A524143095A
:101190008B4201D34B01C01A524103098B4201D348
:1011A0000B01C01A5241C3088B4201D3CB00C01AB5
:1011B000524183088B4201D38B00C01A524143082D
:1011C0008B4201D34B00C01A5241411A00D2014652
:1011D000524110467047FFE701B5002000F006F8C5
:1011E00002BDC0460029F7D076E770477047C04679
:1011F000002B11D1002A0FD1002900D1002802D0E4
:101200000021C943080007B4024802A14018029017
:1012100003BDC046D9FFFFFF03B4684601B502987D
:1012200000F034F8019B9E4602B00CBC7047C046EB
:10123000F0B5CE469946030C9C46130447461B0C5A
:101240001D000E0061460404240C80B50700100C3C
:101250004B436543414360432C0CC01820188C4617
:10126000834203D980235B029846C44449467943AC
:101270005643030C2D042D0C8919634400044019B6
:10128000C918C0BCB946B046F0BDC046F0B5574617
:101290004E464546DE46E0B504000D0092469946AE
:1012A00083B08B4230D82DD04946504600F0D8F854
:1012B00029000600200000F0D3F8331A9846203B9E
:1012C00034D49B4653465A46934042461F005346E9
:1012D00093401E00AF423BD8AF4200D179E05B465D
:1012E000A41BBD41002B00DA76E00022002300920F
:1012F000019301235A4693400193012342469340B0
:10130000009329E08242CFD900220023009201936A
:101310000C9B002B01D01C605D600098019903B00C
:10132000F0BCBB46B246A946A046F0BD42469B462D
:1013300020239B1A5246DA40414613004A468A400F
:10134000170042461F43534693401E00AF42C3D985
:1013500000220023009201934346002BD8D0FB07C4
:1013600072081A4346467B080EE0AB4201D1A24206
:101370000CD8A41A9D41012024196D410021013E81
:1013800024184D41002E06D0AB42EED9013E24195F
:101390006D41002EF8D1009801995B460019694112
:1013A000002B24DB2B005A464446D3402A00E2405F
:1013B0001C005B461500002B2ADB26009E403300F4
:1013C00026004746BE403200801A994100900191A4
:1013D0009EE7A342BCD882E74246202300219B1A05
:1013E0000022009101920122DA40019285E74246F3
:1013F00020239B1A2A0046469A402300F340444685
:1014000013432A00E2401C005B461500002BD4DA8F
:1014100042462F002023260097409B1ADE403B00C7
:101420003343CDE71C2101231B04984201D3000C58
:1014300010391B0A984201D3000A08391B09984247
:1014400001D30009043902A2105C40187047C0465D
:10145000040302020101010100000000000000007D
:1014600010B5002903D1FFF7DDFF203002E00800AE
:10147000FFF7D8FF10BDC046F8B5C046F8BC08BCA1
:101480009E467047F8B5C046F8BC08BC9E467047FB
:1014900001B40248844601BC604700BF61020008F5
:1014A0000300000001000000010000000000000037
:1014B00005036000040000000100000000000000BF
:1014C0000100000006046000080000002C05000870
:1014D000B101001000002040000024400000004046
:1014E00000000000000023400000304000003140B8
:1014F00000009F40000022400000104000009B4080
:101500002020202020132010101E2080170075009E
:10151000FF03050104001C03100000001FC00000B1
:1015200000040000000000000019324B647D02023C
:10153000000000804000080B100000000000FF01C8
:101540002002001F00800004FF0810180010001483
:101550000018001C4044484C5000000008100000D7
:101560000800000004000000041000000012000049
:10157000042100000021000000160000401140027C
:10158000C41300138013A01340138813A813200062
:101590001C00000000000000F4FCFF7F01000000C0
:1015A000000000100000000880000000C0150010BE
:1015B00080000008F8020000B003000818020000D4
:1015C00000093D0000093D0000127A0000093D00BD
:1015D000A00F000004000000F5000010C90000107A
:1015E00080B230B5C400002820D0114B1868030029
:1015F000BA331A8807235343026A9A1811680029DC
:10160000FCDA3E210B4A062511600B4A0B4911609A
:10161000A3210B4AC90055500A495450006A545836
:101620001B18002058605358002BFCDA30BDC04610
:101630004C05000804012640080126401E1F00003A
:10164000000026401C05000010B54378FF2B11D187
:1016500000F01AF90400032000F0FEF80121C3682D
:101660005B681A680A431A601A680A42FCD12000B3
:1016700000F0DAF810BDF7B507000020019100F086
:10168000EBF83E4C050023681A005033BC32166854
:101690001B788619002B59D000F0EEF80090032833
:1016A0001AD000F0F1F8364A364B0400D358002B1C
:1016B0003CDA01212800344A00F0F6F8002835D140
:1016C0000198FFF78DFF002F3ED03368002BFCDB25
:1016D00000F0BAF805002AE0062000F0BDF8236803
:1016E000BC331B68C0180368002B02DA274D2800A2
:1016F000FEBD002000F0B8F8254B9842F6D000233C
:10170000244A19000120126800F096F8041EEDD159
:10171000002000F0A9F81E4A1F4B904203D09C42C3
:10172000E4D00134F4E79C42BBD1DFE7174D009BC6
:10173000032B05D10121002000F0AEF80028F9D1DB
:10174000200000F071F8D2E7144DF0E700F09CF8AB
:10175000012104000C4A280000F0A6F8002808D156
:10176000002F08D03368002BFCDB00F06DF805007B
:10177000E6E7064DE4E7094DE2E7C0464C05000800
:10178000000026401C05000050050008050052001E
:101790000101880060050008F049020001005000C6
:1017A000184BF7B51B6818495A6804230C69234382
:1017B0000B61012824D030BF1300FC331B69002BC0
:1017C0001DD1A324114B12481249E40007681E5989
:1017D0000D680195104D056006251D513E240C60D5
:1017E0000E4C3E351D511D59002DFCDA0C4CFC32BF
:1017F0001461A322D20007609E50019B0B60F7BDCD
:1018000020BFD9E74C05000800ED00E000002640AD
:1018100008012640040126401E1F00001C05000090
:10182000AAAAAAAA0000000001B40248844601BC8A
:10183000604700BF9303001001B40248844601BC16
:10184000604700BFD105001001B40248844601BCC6
:10185000604700BF5904001001B40248844601BC2F
:10186000604700BFA503001001B40248844601BCD4
:10187000604700BF3908001001B40248844601BC2B
:10188000604700BFE102001001B40248844601BC79
:10189000604700BF8B03001001B40248844601BCBE
:1018A000604700BFB907001001B40248844601BC7C
:1018B000604700BFBD0400100000000000000000F1
:1018C0000000000000000000000000000000000018
:1020000000F801088D2300100D00000001240010CD
:102010000124001001240010012400100000000021
:10202000000000000000000000000000415100100E
:10203000FD23001000000000E1510010E9500010E5
:10204000FD23001000000000FD230010FD23001000
:1020500000000000FD230010FD230010FD230010F0
:10206000FD230010FD230010FD230010FD230010B0
:10207000FD23001000000000FD230010FD230010D0
:10208000FD230010FD230010FD230010FD23001090
:10209000FD230010FD230010FD230010FD23001080
:1020A000FD230010FD230010FD230010FD23001070
:1020B000FD230010FD230010FD230010FD23001060
:1020C000FD230010FD230010FD230010FD23001050
:1020D000FD230010FD230010FD230010FD23001040
:1020E000FD230010FD23001000000000FD23001060
:1020F000FD230010FD230010FD230010FD23001020
:1021000000000000FD230010FD230010FD2300103F
:10211000FD230010FD23001000000000000000005F
:10212000FD230010FD230010FD230010FD230010EF
:10213000FD230010FD230010FD230010FD230010DF
:10214000FD230010FD230010FD230010FD230010CF
:10215000FD230010FD230010FD230010FD230010BF
:10216000FD230010FD230010FD230010FD230010AF
:10217000FD230010FD230010FD230010FD2300109F
:10218000FD230010FD230010FD230010FD2300108F
:10219000FD230010FD230010FD230010FD2300107F
:1021A000FD230010FD230010FD230010FD2300106F
:1021B000FD230010FD230010FD230010FD2300105F
:1021C000FD230010FD230010FD230010FD2300104F
:1021D000FD230010FD230010FD230010FD2300103F
:1021E000FD230010FD230010FD230010FD2300102F
:1021F000FD230010FD230010FD230010FD2300101F
:10220000FD230010FD230010FD230010FD2300100E
:10221000FD230010FD230010FD230010FD230010FE
:10222000FD230010FD230010FD230010FD230010EE
:10223000FD230010FD230010FD230010000000000E
:10224000000000000000000000000000FD2300105E
:10225000FD230010FD230010FD230010FD230010BE
:10226000FD230010FD230010FD23001000000000DE
:10227000000000000000000000000000000000005E
:102280000000000000000000FD230010000000001E
:10229000000000000000000000000000000000003E
:1022A000000000000000000000000000000000002E
:1022B000000000000000000000000000000000001E
:1022C000FD230010FD230010FD230010FD2300104E
:1022D00000000000000000000000000000000000FE
:1022E000FD230010FD230010FD230010FD2300102E
:1022F000FD230010FD230010FD2300100348044BB4
:10230000834202D0034B03B118477047E829000805
:10231000E8290008000000000548064B1B1AD90FE9
:1023200001EBA301491002D0034B03B118477047DA
:10233000E8290008E82900080000000010B5064C54
:10234000237843B9FFF7DAFF044B13B10448AFF326
:1023500000800123237010BDD82A0008000000006F
:10236000686A011008B5054B1BB105490548AFF374
:102370000080BDE80840FFF7CFBF00BF00000000AD
:10238000DC2A0008686A011070477047FFF7FCFFFD
:1023900072B6144C144DAC4209DA21686268A36825
:1023A000043BA2BFC858D050FAE70C34F3E70F49FA
:1023B0000F4A00209142BCBF41F8040BFAE70D48D8
:1023C0000D490860BFF34F8F00F0E0FD00F0C4FD41
:1023D00002F0CAFC0EF0AEFD01F026FF0EF0CEFDBD
:1023E000FEE70000746A01108C6A0110D82A000808
:1023F000BC4100080020000808ED00E0FEE7FEE711
:1024000000B504207146084202D0EFF3098002E0D3
:10241000EFF3088004300DF0CDFDFEE708B502486B
:1024200008F03AFA08BD00BFFC2A000808B502F01F
:1024300049F902F001FB02F0B9FA02F055FC02F092
:10244000A3FB02F0FBFB02F01BFA02F0B7F908BD98
:1024500008B502F0BEFC084B1860032200210120E1
:1024600003F0F8FC054B186000231A46194603F0E8
:102470009BF800F0E5FC08BDF42A0008F82A0008E3
:1024800008B5FFF7D3FFFFF7E3FF03F053FE01BEEC
:10249000FEE7000008B50821024B186802F058FD5D
:1024A00008BD00BFF42A000808B51021024B1868C7
:1024B00002F04EFD08BD00BFF42A00082DE9F047E8
:1024C00094B04FF4A87002F0ABFF0646A449002078
:1024D00002F0C0F8A34C2146002002F0BBF8A24A4B
:1024E000A249002002F0B6F8A14AA249002002F059
:1024F000B1F8A14AA149002002F0ACF8A04AA149D4
:10250000002002F0A7F8A04AA049002002F0A2F89B
:102510002146002002F09EF89D4B1D6804F0ACFBA4
:1025200002464FF0FF34009400230121284604F0B6
:102530001FFF984B1D6804F09FFB02460094002388
:102540000121284604F014FF934B93E803001290F6
:10255000ADF84C1003F1080292E803001090ADF8BA
:10256000441003F1100292E803000E90ADF83C1005
:10257000B3228DF830200027ADF8327005228DF897
:1025800034208DF83570B4228DF82820ADF82A70EB
:102590008DF82C708DF82D70183393E80300089097
:1025A000ADF824108DF81F70B94620E204EB440109
:1025B00006EBC10101234B750C7500234FF0FF3270
:1025C0007648006802F0F0FF01340D2CEEDD744C0B
:1025D00000234FF0FF3212A9206802F0E5FF00232C
:1025E0004FF0FF3210A9206802F0DEFF4FF0FF33FA
:1025F00000930023012224216A48006802F0F7FBBF
:1026000010F0200F15D110F0040F25D1654C66494C
:10261000206802F079FC4FF0FF3300930023012281
:102620004021206802F0E3FB10F0400F40F00881E9
:10263000D7E14FF0FF3210A95C4B186803F088F91E
:102640009DF84030B62BE1D14021564B186802F07E
:102650007FFC4FF00009D9E74021524B186802F087
:1026600077FC00234FF0FF320EA95148006802F0BA
:102670009BFF304601F066FE07EB470306EBC30302
:1026800001229A7500240CE004EB440106EBC10121
:1026900000234B754FF0FF324048006802F084FF82
:1026A00001340D2CF0DD4FF00109AFE70123A375D4
:1026B000DFF8E88000234FF0FF322146D8F8000011
:1026C00002F072FF40F2EE2003F0F2FE0023A37549
:1026D0004FF0FF322146D8F8000002F065FF40F2CB
:1026E000EE2003F0E5FE0135022DDFDD9DF84D30D3
:1026F000002B00F0BF80BAF1060F1AD84FFA8AF209
:10270000002A57D1BAF1000F5DD10022ADF84A205E
:10271000013BDBB28DF84D309DF84C100B448DF829
:102720004C308DF84D209DF81F3001338DF81F304F
:1027300049E0AAF1070A5FFA8AFABAF1020F42D811
:10274000228ABDF84A100A44ADF84A20013B8DF8B0
:102750004D309DF84C3001338DF84C3033E000BFE4
:10276000A0440110AC440110FC220008E444011014
:10277000EC440110F8440110084501101445011003
:102780002C230008244501100C23000834450110B7
:102790000C2B0008082B000894450110B4310008E8
:1027A000B0310008F42A00089FFFFF00142B000836
:1027B000C8310008228ABDF84A100A44ADF84A2000
:1027C000013B8DF84D3000234FF0FF320DF11F011A
:1027D000B048006802F0E8FE9DF81F30032B00F2BD
:1027E000AB80BDF84C3023B9BDF84420002A00F07E
:1027F000A38023B9BDF84430002B40F05D81002355
:102800004FF0FF3212A9A448006802F0CDFEB123B8
:102810008DF8483000234FF0FF3212A99F4800681E
:1028200002F0C2FEB0238DF84830BDF84C30002BCA
:1028300000F07D816FF07F41994B186802F064FBD6
:10284000B9F1000F00F02E824FF0FF330093002308
:1028500001221B219248006802F0C9FA10F0010F12
:1028600000F08A8107EB470306EBC30416F833A098
:10287000002539E79DF84C3063B3BAF1060F11D843
:102880004FFA8AF2E2B9BAF1000F9CD10022ADF8FA
:102890004A20013B8DF84C309DF81F3001338DF8F4
:1028A0001F3090E7AAF1070A5FFA8AFABAF1020F1D
:1028B00089D8238ABDF84A201344ADF84A3082E70C
:1028C000228ABDF84A100A44ADF84A20013B8DF82F
:1028D0004C3078E700234FF0FF3212A96F480068B0
:1028E00002F062FE9DF84C308DF844309DF84D307A
:1028F0008DF84530BDF84A30ADF8423000234FF036
:10290000FF3210A96448006802F04EFE00240EE079
:1029100004EB440106EBC10101234B750C75002348
:102920004FF0FF325F48006802F03EFE01340D2C8C
:10293000EEDD4FF0000954E0BDF84A500024ADF838
:1029400042408DF84C408DF84D408DF844408DF854
:102950004540ADF82A5023464FF0FF320AA94F48B0
:10296000006802F021FEDFF8308123464FF0FF328D
:1029700012A9D8F8000002F017FE23464FF0FF32EC
:102980000AA9D8F8000002F00FFE8DF81440DFF815
:102990001C81D8F80030069323464FF0FF3205A97A
:1029A0004148006802F000FE4FF0FF3205A9D8F858
:1029B000000002F0CDFFBDF816309D4241D84FF027
:1029C000FF3300930023012224213548006802F0E0
:1029D0000EFA10F0040F45D110F0200F52D14FF035
:1029E00000096FF07F412E4B186802F08DFA00232A
:1029F0004FF0FF320DF11F012648006802F0D4FDB0
:102A000000248DF80C40294D2B68049323464FF089
:102A1000FF3203A92448006802F0C6FD4FF0FF32E0
:102A200003A9286802F094FFBDF80E202049012078
:102A300001F010FE6FF07F41194B186802F064FA44
:102A4000C3E501238DF81430ADF81650D8F80030E6
:102A5000069323464FF0FF3205A91348006802F0A1
:102A6000A3FDACE700238DF81F3005228DF84C2024
:102A70008DF844204FF0FF3208A90848006802F0A2
:102A800093FDACE74FF0FF3210A90A4B186802F033
:102A90005FFFA4E7AC310008B0310008C83100087E
:102AA000F42A0008B4310008A8310008102B0008EF
:102AB00048450110142B0008BDF84A30ADF83230FB
:102AC0009DF84C308DF834308DF835308DF8453028
:102AD00000234FF0FF320CA9BF48006802F064FDEC
:102AE00000248DF84C40BD4D23464FF0FF3212A913
:102AF000286802F059FD23464FF0FF3210A92868DC
:102B000002F052FD0D2C0FDC04EB440106EBC10179
:102B100001234B750C7500234FF0FF32B04800685D
:102B200002F042FD0134EDE74FF0000982E64FF07C
:102B3000FF320EA9A848006802F036FD00234FF0CE
:102B4000FF3212A9A548006802F02EFD00240EE015
:102B500004EB440106EBC10101234B750C75002306
:102B60004FF0FF329E48006802F01EFD01340D2C2C
:102B7000EEDD4FF000095DE610F0020F36D110F0E7
:102B8000080F7AD110F0100F3FF454AE954905AB01
:102B9000009320230A469448006809F0FDF800B12C
:102BA00001BE059A53089149A1FB03139B08C3EB8F
:102BB000C303A2EB4303DCB204EB440106EBC10107
:102BC00001238B75864D00234FF0FF32286802F0F9
:102BD000EBFC07EB470706EBC70100238B754FF0B3
:102BE000FF32286802F0E0FC274623E680490120F6
:102BF00001F030FD9DF84C30002B3FF41BAE9DF8EA
:102C00004D20002A7FF416AEBDF84A20ADF83220E0
:102C10008DF834308DF835308DF8453000234FF085
:102C2000FF320CA96C48006802F0BEFC00248DF84D
:102C30004C406A4D23464FF0FF3212A9286802F03B
:102C4000B3FC23464FF0FF3210A9286802F0ACFC19
:102C50000EE004EB440106EBC10101234B750C753A
:102C600000234FF0FF325E48006802F09DFC013403
:102C70000D2CEEDD4FF00009DCE5304601F062FB83
:102C800000240CE004EB440106EBC10100234B756A
:102C90004FF0FF325248006802F086FC01340D2CE0
:102CA000F0DDC7E54FF0FF33009300230122202120
:102CB0005048006802F09BF810F0200F3FF4C0ADC0
:102CC0004FF0FF3210A94C4B186802F041FE9DF8FE
:102CD0004030B12B4DD0B32B60D0B42B7FF4B0ADCE
:102CE00005238DF84C308DF84430B1238DF84030F9
:102CF0003A4C00234FF0FF3210A9206802F054FC38
:102D000000234FF0FF320AA9206802F04DFC002397
:102D10008DF81430394C226806924FF0FF3205A925
:102D20003748006802F040FC4FF0FF3205A92068E8
:102D300002F00EFEBDF81620BDF84A30934261D86D
:102D40004FF0FF330093002301222421294800681B
:102D500002F04DF810F0040F64D110F0200F3FF492
:102D600040AE4FF0FF3210A9234B186802F0F0FD7F
:102D700037E600234FF0FF3210A91848006802F030
:102D800013FCBDF84430002B7FF45AADBDF84C3035
:102D9000002B3FF455AD4FF0010955E59DF8453046
:102DA0008DF84D3000248DF844408DF84540B12316
:102DB0008DF84030094D23464FF0FF3212A92868A4
:102DC00002F0F2FB23464FF0FF3210A9286802F010
:102DD000EBFB4FF0010937E5C8310008B0310008BE
:102DE000B4310008B71DC104FC2A0008932449929D
:102DF00058450110F42A0008142B0008102B000875
:102E0000A831000801228DF81420ADF8163023688F
:102E1000069300234FF0FF3205A90748006802F02F
:102E2000C3FB8DE700234FF0FF3208A90348006879
:102E300002F0BAFBD5E500BFA8310008C831000890
:102E400000B583B000220621012003F003F8164BE1
:102E5000186000220821012002F0FCFF134B1860CB
:102E6000134B00930023012240F2DC51114804F07F
:102E700063FA114B1860114B0093002301224FF4A9
:102E8000C8710F4804F058FA0E4B18600E4B0193AE
:102E90000323009300234FF4A0620C490C4803F075
:102EA00011F903B05DF804FB142B0008102B000887
:102EB00095240010644501100C2B0008A924001073
:102EC00070450110082B0008042B000880450110F4
:102ED000BD24001008B5012009F0D0FB08BD7047E3
:102EE00010B500200CF07EFF00B910BD0446124B57
:102EF00018600CF0AFF90130B4FBF0F00F4B186024
:102F00000CF0C0F90130B4FBF0F40D4B1C60013C37
:102F10000C4BA3FB04239B0C01330B4A13700B4B8C
:102F2000A3FB0434A4090134094B1C6000200CF0FD
:102F300059FF084B1860D8E73C23000840230008DD
:102F40003423000883DE1B4348230008D34D62105E
:102F5000442300083823000808B5094808F02EFD6E
:102F6000FFF7BDFFFFF7BCFF00221146032009F069
:102F7000E1FB044809F024FA034809F083FA08BD8C
:102F800018660110182B0008B4450110EFF31081EA
:102F900072B6074AD2F8883043F47003C2F888301A
:102FA000BFF34F8FBFF36F8F81F31088704700BF5F
:102FB00000ED00E008B500F029F800F005F808BDC4
:102FC00008B500F015F808BD10B5064C064A0621F4
:102FD000204609F00FF9054A0721204609F00AF9B1
:102FE00010BD00BF00033140E8450110204601102C
:102FF00008B5034805F016F8024805F013F808BDB7
:103000001C46011054460110FEE7000010B5962141
:1030100000200DF021F80CF0E9FA002108460CF030
:10302000B5F900200CF020F901200CF005F9002082
:103030000CF092F84E4B1B6893F83F4003E020469B
:103040000CF010FC013C002CF9D1002101200CF007
:1030500019FA00200CF088F9002872D000210846E7
:103060000CF010FA002108460CF05EF900200CF07C
:10307000D3F800200CF0F8F800200CF0DDF8002068
:103080000CF06AF8002101200CF0FCF90021084640
:103090000CF0F8F9002102200CF0F4F900210320D3
:1030A0000CF0F0F9002104200CF0ECF931480CF0A0
:1030B000B7FA002850D130480CF062FB00284ED1FE
:1030C000002108460CF030F9002108460CF05EF9AA
:1030D0002A4901200CF0ECFB002843D142F2107188
:1030E00001200CF073FC00283FD10CF08BF800207D
:1030F0000CF05CF800200CF06FF80CF079F800216F
:1031000008460DF037F901200CF040F80CF07CF97E
:1031100001200CF083F9FFF7E3FE002108460DF0D3
:1031200029F9174804F07EFF164804F07BFF164883
:1031300004F078FF154804F075FF154804F072FF9D
:1031400010BD0CF0CDF940F21113984286D1012147
:1031500000200CF0E9F881E70420FFF755FF042078
:10316000FFF752FF0320FFF74FFF0320FFF74CFF4D
:10317000443E000858460110400D030080460110EF
:103180006C4601107046011074460110784601101B
:103190007C46011008B504480CF0C6FF08B10020B9
:1031A00008BD0248FCE700BF4C23000800000206EF
:1031B00010B504F035FF044630B1FFF7FBFEFFF712
:1031C000FFFE2CB1204610BD06F096FE0446F4E743
:1031D000FFF7E0FF0446F5E738B5054610200EF08E
:1031E000CDFE044628460EF0C9FEE060258100238E
:1031F00023606360204638BD08B500230622012104
:103200003B2004F009FE00B101BE08BD00B585B049
:103210004FF60573ADF80C304FF6FF73ADF808307C
:103220000EE001BE124B1B6898690122032100F5D4
:10323000607008F057FF9DF8093013F0010F14D0AB
:103240000B4B1B6898690022032100F5607008F0A1
:1032500049FF002301930222009202AB03A9054813
:1032600006F0B4FC0028DDD0DBE705B05DF804FB18
:10327000443E0008682F000800B585B04FF606737D
:10328000ADF80C304FF6FF73ADF808300F4B1B68EC
:1032900098690022032100F5607008F023FF0023E5
:1032A00001930222009202AB03A9094806F08EFCAA
:1032B00000B101BE054B1B6898690122032100F58E
:1032C000607008F00FFF05B05DF804FB443E000895
:1032D000682F000800B585B04FF60473ADF80C30C8
:1032E0004FF6FF73ADF808300F4B1B68986900224A
:1032F000032100F5607008F0F5FE0023019302221F
:10330000009202AB03A9094806F060FC00B101BEBF
:10331000054B1B6898690122032100F5607008F0D5
:10332000E1FE05B05DF804FB443E0008682F00088C
:1033300000B585B0030A02228DF80C208DF80D30FF
:103340008DF80E008DF80F104FF0FF330293FFF74A
:103350005DFFFFF791FF114B1B6898690022032165
:1033600000F5607008F0BEFE002301930422009275
:1033700002AB03A90A4806F029FC00B101BE074BC5
:103380001B6898690122032100F5607008F0AAFE0D
:10339000FFF7A0FF05B05DF804FB00BF443E000846
:1033A000682F000810B584B0030A03248DF80C4080
:1033B0008DF80D308DF80E00FF238DF80F304FF093
:1033C000FF330293FFF722FFFFF756FF114B1B68F5
:1033D00098690022214600F5607008F083FE002302
:1033E00001930422009202AB03A90B4806F0EEFB06
:1033F00000B101BE074B1B6898690122032100F54B
:10340000607008F06FFEFFF765FF9DF80B0004B0D9
:1034100010BD00BF443E0008682F000808B5002317
:1034200002220321074805F00DF908B101BEFEE7AD
:103430000549044805F07CF908B101BEFEE700200B
:1034400008BD00BFA02C00086823000800B585B0A7
:103450008DF80C008DF80D100123019300230093CB
:10346000022303AA2021044805F07CF900B101BE23
:1034700005B05DF804FB00BFA02C000808B50146AC
:103480000120FFF7E3FF08BD08B501460320FFF761
:10349000DDFF08BDF0B59C46394C0126C4F88460B8
:1034A0000223C4F88430374F2A253D600425C4F830
:1034B0008450C4F88850C4F88830C4F888604FEA53
:1034C000102EC0B2C4F88460C7F800E0C4F884507D
:1034D000C4F888503860C4F88450C4F88850C4F8E0
:1034E0008860080AC9B2C4F884603860C4F884509F
:1034F000C4F888503960C4F88450C4F88850C4F8BF
:103500008860C4F88460C4F884302B213960C4F822
:103510008450C4F88850C4F88830C4F88860110A10
:10352000D2B2C4F884603960C4F88450C4F88850BA
:103530003A60C4F88450C4F88850C4F888604FEAF0
:103540001C215FFA8CF2C4F884603960C4F884509E
:10355000C4F888503A60C4F88450C4F88850C4F85D
:103560008860C4F88460C4F884302C223A60C4F8BF
:103570008450C4F88850C4F88830C4F88860F0BD1E
:10358000000031400001314070B50446EF230022B5
:1035900040F23F111046FFF77DFF4FF0000C1CE09A
:1035A000210AE0B2104B0125C3F884500F4E316060
:1035B0000421C3F88410C3F888103060C3F8841065
:1035C000C3F88810C3F888502A4492B2B2F5A07F9D
:1035D000E6D30CF1010C1FFA8CFCBCF1EF0F01D803
:1035E0000022F3E770BD00BF000031400001314010
:1035F0002DE9F04107468C4615469846BDF818401F
:10360000A0EB520080B207EB5207B9B212F0010FE3
:1036100001D14B1E99B2ACEB580292B20CEB58039D
:103620009BB218F0010F01D1013B9BB2FFF732FFB3
:103630004FF0000E1BE0230AE2B210490127C1F847
:1036400084700F4E33600423C1F88430C1F8883091
:103650003260C1F88430C1F88830C1F888703844CD
:1036600080B2A842E7D30EF1010E1FFA8EFEC645C6
:1036700001D20020F5E7BDE8F08100BF0000314035
:10368000000131402DE9F84F86468C461546994693
:10369000DDF82880BDF82C70BDF830600024A0EB68
:1036A000520080B20EEB520189B212F0010F01D12B
:1036B000013989B2ACEB590292B20CEB59039BB2BF
:1036C00019F0010F01D1013B9BB2FFF7E3FE4FEA76
:1036D000D50C15F0070F01D00CF1010C002249E0C8
:1036E00014F0800F2AD1330A5FFA86FE24484FF087
:1036F000010AC0F884A0DFF88CB0CBF800300423B6
:10370000C0F88430C0F88830CBF800E0C0F88430CE
:10371000C0F88830C0F888A06400E4B2013189B2F2
:10372000A94225D211F0070FDAD112FB0CF3C80819
:1037300010FA83F39BB218F80340D1E7380A5FFA16
:1037400087FE0F4B4FF0010AC3F884A0DFF834B0B6
:10375000CBF800000420C3F88400C3F88800CBF83D
:1037600000E0C3F88400C3F88800C3F888A0D3E75A
:10377000013292B24A4501D20021D1E7BDE8F88F6B
:1037800000003140000131402DE9F843EA4C0125A9
:10379000C4F884504FF00208C4F88480E74F3D60BD
:1037A0000426C4F88460C4F88860C4F88880C4F82B
:1037B000885032200CF0D6FBC4F88450C4F88480C2
:1037C0004FF01109C7F80090C4F88460C4F888600D
:1037D000C4F88880C4F8885078200CF0C3FBC4F883
:1037E0008450C4F88480CF233B60C4F88460C4F85C
:1037F0008860C4F88880C4F88850C4F884500023D6
:103800003B60C4F88460C4F88860C4F88850C4F889
:10381000845083223A60C4F88460C4F88860C4F895
:103820008850C4F8845030223A60C4F88460C4F8E8
:103830008860C4F88850C4F88450C4F88480ED22AD
:103840003A60C4F88460C4F88860C4F88880C4F81A
:103850008850C4F8845064223A60C4F88460C4F884
:103860008860C4F88850C4F8845003223A60C4F8D1
:103870008460C4F88860C4F88850C4F88450122268
:103880003A60C4F88460C4F88860C4F88850C4F80A
:10389000845081223A60C4F88460C4F88860C4F817
:1038A0008850C4F88450C4F88480E8223A60C4F890
:1038B0008460C4F88860C4F88880C4F88850C4F86C
:1038C000845085223A60C4F88460C4F88860C4F8E3
:1038D0008850C4F884503D60C4F88460C4F888609F
:1038E000C4F88850C4F8845079223A60C4F88460DF
:1038F000C4F88860C4F88850C4F88450C4F8848040
:10390000CB223A60C4F88460C4F88860C4F8888028
:10391000C4F88850C4F8845039223A60C4F88460EE
:10392000C4F88860C4F88850C4F884502C223A60E7
:10393000C4F88460C4F88860C4F88850C4F884501F
:103940003B60C4F88460C4F88860C4F88850C4F848
:10395000845034223A60C4F88460C4F88860C4F8A3
:103960008850C4F88450C7F80080C4F88460C4F854
:103970008860C4F88850C4F88450C4F88480F72163
:103980003960C4F88460C4F88860C4F88880C4F8DA
:103990008850C4F8845020213960C4F88460C4F889
:1039A0008860C4F88850C4F88450C4F88480EA2140
:1039B0003960C4F88460C4F88860C4F88880C4F8AA
:1039C0008850C4F884503B60C4F88460C4F88860B0
:1039D000C4F88850C4F884503B60C4F88460C4F8CC
:1039E0008860C4F88850C4F88450C4F88480C12129
:1039F0003960C4F88460C4F88860C4F88880C4F86A
:103A00008850C4F88450C7F80090C4F88460C4F8A3
:103A10008860C4F88850C4F88450C4F88480C521F4
:103A20003960C4F88460C4F88860C4F88880C4F839
:103A30008850C4F884503A60C4F88460C4F8886040
:103A4000C4F88850C4F884503D223A60C4F88460B9
:103A5000C4F88860C4F88850C4F88450C4F88480DE
:103A6000C7223A60C4F88460C4F88860C4F88880CB
:103A7000C4F88850C4F88450C0223A60C4F8846006
:103A8000C4F88860C4F88850C4F88450C4F88480AE
:103A900036223A60C4F88460C4F88860C4F888802C
:103AA000C4F88850C4F8845068223A60C4F884602E
:103AB000C4F88860C4F88850C4F88450C4F884807E
:103AC0003A223A60C4F88460C4F88860C4F88880F8
:103AD000C4F88850C4F8845055223A60C4F8846011
:103AE000C4F88860C4F88850C4F88450C4F884804E
:103AF000B1223A60C4F88460C4F88860C4F8888051
:103B0000C4F88850C4F884503B60C4F88460C4F89A
:103B10008860C4F88850C4F884501D223A60C4F804
:103B20008460C4F88860C4F88850C4F88450C4F82D
:103B30008480B62104E000BF000031400001314024
:103B40003960C4F88460C4F88860C4F88880C4F818
:103B50008850C4F884500A223A60C4F88460C4F8DB
:103B60008860C4F88850C4F88450A2203860C4F833
:103B70008460C4F88860C4F88850C4F88450272052
:103B80003860C4F88460C4F88860C4F88850C4F809
:103B900084503B60C4F88460C4F88860C4F88850DE
:103BA000C4F88450C4F88480B7233B60C4F88460B0
:103BB000C4F88860C4F88880C4F88850C4F8845079
:103BC00007233B60C4F88460C4F88860C4F8885058
:103BD000C4F88450C4F884803960C4F88460C4F8A0
:103BE0008860C4F88880C4F88850C4F884500823DA
:103BF0003B60C4F88460C4F88860C4F88850C4F896
:103C00008450C4F8848026233B60C4F88460C4F8E0
:103C10008860C4F88880C4F88850C4F884503D6037
:103C2000C4F88460C4F88860C4F88850C4F884502C
:103C3000C4F88480E0233B60C4F88460C4F88860E2
:103C4000C4F88880C4F88850C4F884501F233B60AF
:103C5000C4F88460C4F88860C4F88850C4F88450FC
:103C60001A233B60C4F88460C4F88860C4F88850A4
:103C7000C4F8845018233B60C4F88460C4F888609A
:103C8000C4F88850C4F884503A60C4F88460C4F81A
:103C90008860C4F88850C4F884500F233B60C4F88F
:103CA0008460C4F88860C4F88850C4F8845006233F
:103CB0003B60C4F88460C4F88860C4F88850C4F8D5
:103CC000845045233B60C4F88460C4F88860C4F81D
:103CD0008850C4F8845087233B60C4F88460C4F8DB
:103CE0008860C4F88850C4F884504FF03209C7F88F
:103CF0000090C4F88460C4F88860C4F88850C4F8A0
:103D000084503A60C4F88460C4F88860C4F888506D
:103D1000C4F8845007233B60C4F88460C4F888600A
:103D2000C4F88850C4F88450C7F80080C4F8846090
:103D3000C4F88860C4F88850C4F884503B60C4F864
:103D40008460C4F88860C4F88850C4F8845005239F
:103D50003B60C4F88460C4F88860C4F88850C4F834
:103D6000845000223A60C4F88460C4F88860C4F8C3
:103D70008850C4F88450C4F88480E1213960C4F8C4
:103D80008460C4F88860C4F88880C4F88850C4F897
:103D900084503A60C4F88460C4F88860C4F88850DD
:103DA000C4F8845025223A60C4F88460C4F888605E
:103DB000C4F88850C4F884503860C4F88460C4F8EB
:103DC0008860C4F88850C4F884503B60C4F88460AC
:103DD000C4F88860C4F88850C4F8845010223A604F
:103DE000C4F88460C4F88860C4F88850C4F884506B
:103DF00009223A60C4F88460C4F88860C4F8885026
:103E0000C4F884503A223A60C4F88460C4F88860E8
:103E1000C4F88850C4F8845078203860C4F88460AE
:103E2000C4F88860C4F88850C4F884504D213960C3
:103E3000C4F88460C4F88860C4F88850C4F884501A
:103E40003B60C4F88460C4F88860C4F88850C4F843
:103E5000845018233B60C4F88460C4F88860C4F8B8
:103E60008850C4F884500D233B60C4F88460C4F8C3
:103E70008860C4F88850C4F8845038233B60C4F884
:103E80008460C4F88860C4F88850C4F884503A60EC
:103E9000C4F88460C4F88860C4F88850C4F88450BA
:103EA0001F233B60C4F88460C4F88860C4F888505D
:103EB000C4F88450C4F8848011233B60C4F8846043
:103EC000C4F88860C4F88880C4F888500CF04AF8B8
:103ED000C4F88450C4F8848029233B60C4F884600B
:103EE000C4F88860C4F88880C4F8885048460CF04C
:103EF00039F8BDE8F88300BF08B50123062219464A
:103F0000082003F089FF00B108BD012306221946ED
:103F1000092003F081FF0028F6D10123062219466B
:103F20000A2003F079FF0028EED10123062219466A
:103F3000102003F071FF0028E6D101230622194664
:103F4000112003F069FF0028DED101230622194663
:103F5000122003F061FF0028D6D101230622194662
:103F6000132003F059FF0028CED101230622194661
:103F7000142003F051FF0028C6D101230622194660
:103F8000152003F049FF0028BED10123062219465F
:103F9000162003F041FF0028B6D10123062219465E
:103FA000172003F039FFAFE708B5FFF7A5FF00B111
:103FB00008BDFFF7E9FB0020FFF7E6FAF8E700008D
:103FC000254B1B6913F0080F07D1244A1278042AE5
:103FD00006D8013221490A7002E0204A00211170FE
:103FE00013F0100F07D11E4A1278042A06D80132A6
:103FF0001B490A7002E01A4A0021117013F0200FC9
:1040000007D1184B1B78042B06D80133154A1370BF
:1040100002E0144B00221A70104B1B78042B08D0BE
:104020000F4B1B78042B0AD00E4B1B78042B0CD0A3
:1040300070470D4A137843F001031370F0E70A4A02
:10404000137843F002031370EEE7074A137843F046
:1040500004031370ECE700BF00033140542D000847
:10406000552D0008562D0008E42F000810B5054C0A
:10407000054B064A0649204600F0A4F8204606F003
:1040800081FB10BD582D0008C13F0010404B4C0073
:10409000902D000810B5044600231A461946332017
:1040A00003F0BAFE00231A461946342003F0B4FE8A
:1040B00000231A461946352003F0AEFE04B910BDA0
:1040C000FFF7D4FFFBE7000038B50D461446002289
:1040D0000146064807F0CEF80DB91CB938BD00F00E
:1040E0002BF8FAE700F03AF8F8E700BFA42D000833
:1040F00000B585B00D4B029300230193FF2300937D
:10410000182219210A4807F0A1FA00B101BE094A94
:104110004FF4E131064806F087FE00B101BE0448C5
:1041200007F080F805B05DF804FB00BF8846011079
:10413000A42D0008A02D000808B55020FFF74CF86A
:10414000044B1860012303228021034807F0A6F8DE
:1041500008BD00BF602F0008A42D000808B550203E
:10416000FFF73AF8044B1860002303224FF48071E4
:10417000024807F093F808BD642F0008A42D00083A
:1041800010B586B00D4C7C22002120460EF0A2FF17
:10419000002304930393082202920193FF230093C8
:1041A0003A2339223821204605F034FC08B106B004
:1041B00010BD0349204605F033FBF8E7682F0008DF
:1041C00040420F00F0B583B005460C461F4600265E
:1041D0008E60013A4A604E708E7001230B70CE6083
:1041E0003246FF2106F0A4FA00B101BE214628465E
:1041F00006F0F8FA00B101BE0A49284606F0FCF9BB
:1042000000B101BE05F1080400223946204605F040
:10421000F5FF0122009203232146284606F02EF8DE
:1042200003B0F0BD00E1F50508B5FEF7C1FF00B130
:1042300001BE62B6FEF7F2F8FEF722F9FEE70000D3
:10424000844608461146BCF1090F03D9BCF13A0F68
:1042500000D0704730B585B0BCF13A0F13D00B4C8D
:1042600004EB8C0EBEF80220094D2A44BDF8205004
:104270000295019300929EF8013014F82C20FFF76C
:1042800001FA05B030BD4FF00A0CE8E724490110EF
:10429000AC4601102DE9F04184B0BDF828806328B8
:1042A00002D904B0BDE8F0810C4617461E4602460E
:1042B0000C4903A80DF0CEFF002510E005F1100316
:1042C0006B4413F8040C3038CDF8008033463A467E
:1042D0002146C0B2FFF7B4FF0F34A4B20135012D5F
:1042E000ECDDDEE79C4601102DE9F04184B01F466D
:1042F000BDF82880114B984202D904B0BDE8F08186
:104300000C46164602460E4902A80DF0A3FF0025F2
:1043100010E005F110036B4413F8080C3038CDF8A9
:1043200000803B4632462146C0B2FFF789FF0F347A
:10433000A4B20135052DECDDDFE700BF3F420F00E1
:10434000A4460110F0B585B0054600210D2910DC0A
:1043500001EB410005EBC002002345F8303053600B
:104360009360D360136153610A2305F83030013143
:10437000ECE7002611E0039B5C085B4AA2FB0424E7
:10438000A408C4EBC404A3EB440404EB440305EB0E
:10439000C30715F833300A2B0ED0022E1ADC53490E
:1043A00003AB009320230A465148006807F0F4FC51
:1043B0000028E0D001BEDEE7BC46DFF83CE1BEE805
:1043C0000F00ACE80F009EE803008CE803003C758A
:1043D0000136E2E7002611E0039B5C08424AA2FB9B
:1043E0000424A408C4EBC404A3EB440404EB440376
:1043F00005EBC30715F833300A2B0ED0022E3BDC39
:104400003A4903AB009320230A463948006807F075
:10441000C3FC0028E0D001BEDEE7344903AB0093C3
:1044200020230A463248006807F0B6FC00B101BEFE
:10443000039B304AA2FB031222F0010101EB52025E
:104440009B1A13F0FF0315D0012B11D0092303EBA6
:104450004302BE46284B03EBC20CBCE80F00AEE89B
:104460000F009CE803008EE803003C750136C5E7A9
:104470000823ECE70723EAE700241CE001BE039AC7
:104480001E4BA3FB0213D11A03EB51039B08C3EB92
:10449000C303D31ADBB203EB4303B646164A02EB5F
:1044A000C30CBCE80F00AEE80F009CE803008EE8E8
:1044B0000300347501340D2C13DC04EB440305EBCD
:1044C000C30615F833300A2BF4D1084903AB009327
:1044D00020230A460648006807F05EFC0028CED07C
:1044E000CCE705B0F0BD00BF93244992B71DC104CD
:1044F000FC2A0008ABAAAAAAE45701102549922475
:1045000030B585B00D4B53F820000390BDF80C403A
:10451000BDF80E504FF47843009338231A462946CD
:104520002046FFF765F80023009332231A462946F8
:104530002046FFF75DF805B030BD00BF70230008CE
:1045400010B586B00446037D0E4A52F8230005904C
:10455000A27D1AB1A289E189A181E2811846FFF703
:10456000CFFFE3890293A3890193636800932389B2
:104570006289BDF81610BDF81400FFF783F806B085
:1045800010BD00BF7023000810B582B007E000998D
:10459000F1B12A4808F0C9F9009800F051FF4FF036
:1045A000FF326946264B186801F0D2F90128F6D18E
:1045B0009DF80430032BEFD801A252F823F000BF7E
:1045C0008F450010D5450010F74500101946001022
:1045D00001BEDEE71B49194808F0A7F9009941B16F
:1045E000164C204608F0A1F91749204608F09DF91D
:1045F000D2E701BEF4E71549104808F096F9009992
:1046000041B10E4C204608F090F90F49204608F0C1
:104610008CF9C1E701BEF4E70D49084808F085F9B7
:10462000009941B1054C204608F07FF90649204623
:1046300008F07BF9B0E701BEF4E700BF0000654079
:10464000A4310008B4590110E8440110D0590110F8
:10465000EC5901100EB430B584B00446642000F06B
:10466000DFFEB8B1054608AB0193C4B90020019B39
:10467000079AC0F1640128440DF0DCF88DF80C4075
:10468000029500231A4602A90C48006800F08CFF2E
:1046900001280FD104B0BDE8304003B0704702F0EC
:1046A0009DF902F0F5FA0346054A642128460DF00B
:1046B0009DFDDCE7284600F0C3FEEBE7A4310008CF
:1046C000085A011000B587B0144B029300230193E0
:1046D000FF23009328222921114806F0B7FF00B1DB
:1046E00001BE05AA4FF4E1310D4806F09DFB00B173
:1046F00001BE00220821102001F0ACFB094B18601C
:1047000000230193032200924FF4F0620649074808
:1047100001F0D8FC07B05DF804FB00BF205A01107F
:10472000E82F0008A4310008145A01108945001030
:1047300010B582B00AE0BDF802100C0AC9B2202000
:10474000FEF7F6FD21462120FEF7F2FD4FF0FF3285
:104750006946184B186801F0FBF80028F6D09DF860
:104760000030012BE7D0022B16D0002BEED12020F9
:10477000FEF718FE84B22120FEF714FE83B21B025E
:104780009BB22344ADF8023000234FF0FF3269465C
:10479000019800F009FFD9E707490120FFF75AFF08
:1047A00000212020FEF7C4FD00212120FEF7C0FDDE
:1047B000CCE700BFA8310008345A011000B583B01F
:1047C000FFF7DEFCFEF718FD00220821012001F0B2
:1047D00041FB074B186000230193052200928022C1
:1047E0000449054801F06EFC03B05DF804FB00BF0E
:1047F000A8310008485A01103147001000B583B0B5
:104800008020FEF741FE0020FEF738FE02E0002087
:10481000FEF734FE002301934FF0FF3201A9164B3F
:10482000186801F095F80128F4D1019B042B1DD8DC
:1048300001A252F823F000BF0F4800104D480010AD
:10484000554800105D480010654800100820FEF72C
:1048500015FEDFE70C20FEF711FEDBE70E20FEF76A
:104860000DFED7E70F20FEF709FED3E7034903202B
:10487000FFF7F0FECEE700BFAC310008545A01103C
:1048800000B583B0FEF7CAFD00220121084601F001
:10489000E1FA074B18600023019305220092802261
:1048A0000449054801F00EFC03B05DF804FB00BFAD
:1048B000AC310008645A0110FD47001000B587B004
:1048C0002CE0002400944FF6FF734B227821BDF8B2
:1048D0001200FFF709FD00944FF6FF73822250216A
:1048E0009DF81400FFF7D6FC00944FF6FF73822268
:1048F000E1219DF81500FFF7CDFC02940194284BAF
:1049000000932F235B229621A020FEF7BBFE0023FD
:104910001A4619462348006800F046FE4FF0FF3261
:1049200004A9214B186801F013F80128F6D14FF0C3
:10493000FF311C4B186801F0BAF89DF81030B02B0D
:10494000BFD0B12B0FD0B42BE1D1002302934FF491
:1049500078430193124B00932F235B229621A020D2
:10496000FEF790FED3E70024009447F6EF3364226D
:104970007821BDF81200FFF7B7FC009447F6EF333B
:104980009B2250219DF81400FFF784FC009447F609
:10499000EF339B22E1219DF81500FFF77BFCB6E782
:1049A000B0550110F82A0008B031000800B583B0F6
:1049B00000220621012001F04DFA074B1860002368
:1049C0000193042200924FF420720449044801F03C
:1049D00079FB03B05DF804FBB0310008705A011098
:1049E000BD48001000B587B009E06846FFF7A8FD94
:1049F00000231A4619460E48006800F0D5FD4FF016
:104A0000FF3269460B4B186800F0A2FF0028F6D071
:104A10004FF0FF31064B186801F049F89DF815304A
:104A2000002BE2D09DF81400FFF76AFDE0E700BF1D
:104A3000F82A0008B431000800B583B0FFF7B4FAD3
:104A4000002218210E2001F005FA074B1860002300
:104A50000193042200924FF4A0620449044801F03B
:104A600031FB03B05DF804FBB4310008845A011037
:104A7000E54900100378A02B09D143785033DBB20D
:104A8000062B06D88379A12B05D101207047002081
:104A900070470020704700207047000010B582B0BA
:104AA0000023009311F0080F02D111F0800F01D103
:104AB00002B010BD1A460DF10701134806F07AFB4B
:104AC000124A1378D1189DF8070048700133DBB201
:104AD0001370072B0DD0009B002BE9D04FF0E02383
:104AE0004FF08052C3F8042DBFF34F8FBFF36F8F89
:104AF000DEE7144600236A4621460548006800F0B8
:104B000039FE00232370E6E7A42D0008B831000821
:104B1000C431000800B587B04FF0FF3203A9174B2E
:104B2000186800F015FF0128F6D10DF10D00FFF710
:104B3000A1FF0028F0D09DF80E308DF804309DF8CC
:104B40000F209DF8103043EA0223ADF806309DF89F
:104B500011308DF808309DF812308DF8093000239F
:104B60004FF0FF3201A90648006800F01DFD20212A
:104B7000044B186800F0ECF9CEE700BFC431000820
:104B8000142B0008F42A000800B583B000220B2182
:104B9000012001F05FF90B4B1860FFF7A9FA002222
:104BA00001210948FFF790FA0023019306220092A1
:104BB0004FF420720549064801F084FA03B05DF80D
:104BC00004FB00BFC43100089D4A0010985A011030
:104BD000154B001000B583B04FF0FF326946154BFE
:104BE000186800F0B5FE0128F6D1134CA02120462C
:104BF00006F006FB9DF80010204606F001FBBDF80C
:104C00000210090A204606F0FBFA9DF80210204621
:104C100006F0F6FA9DF80410204606F0F1FA9DF829
:104C20000510204606F0ECFAA121204606F0E8FA2D
:104C3000D2E700BFC8310008A42D000800B583B03A
:104C400000220621012001F005F9074B186000231E
:104C50000193042200924FF420720449044801F0A9
:104C600031FA03B05DF804FBC8310008B05A0110F6
:104C7000D54B001070B500242646254600E00024E0
:104C8000322001F015FC164BD3F8103313F0080F47
:104C900007D13DB90121134B186800F059F90125DE
:104CA00000E000250E4BD3F8103313F0100F07D19E
:104CB0003EB902210B4B186800F04AF9012600E0CA
:104CC0000026074BD3F8103313F0200FD7D1002C58
:104CD000D6D10421034B186800F03AF90124CFE73C
:104CE00000003140F42A000800B583B00020FFF72F
:104CF000D1F9002301930522009280220349044840
:104D000001F0E0F903B05DF804FB00BFC05A0110E8
:104D1000754C0010000000000230800803D0013004
:104D20000238FCD100BF00BF7047EFF3108072B6AD
:104D3000704780F310887047034B0360034B0B6090
:104D400080231360704700BFCC370008CC310008C7
:104D5000034B0360034B0B604FF480731360704789
:104D600088380008CC3300087047000008B50346B7
:104D70000A4A10680A4A121A9A4207DBC118094AFD
:104D8000914203DB0344054A136008BD0EF064F949
:104D90000C2303604FF0FF30F7E700BFA8230008A3
:104DA00000E80108C041000808B501F05DFF08BD3A
:104DB00008B501F0D7FA08BD1AB9084205D1104666
:104DC0007047814303D000207047012070470120C5
:104DD000704738B5202000F023FB044628B1002599
:104DE00040F8045B00F0FCF82577204638BD2DE93B
:104DF000F8430D4617461E46DDF820808146002800
:104E000036D015F07F4F08D04FF03F0383F3118861
:104E1000BFF36F8FBFF34F8F01BE45B94FF03F0314
:104E200083F31188BFF36F8FBFF34F8F01BE01F083
:104E3000DBFD58B9B8F1000F08D04FF03F0383F302
:104E40001188BFF36F8FBFF34F8F01BE01F00CFFCE
:104E5000D9F80040324629462046FFF7ADFF88B119
:104E60001FB324EA0503C9F800304FF000081EE024
:104E70004FF03F0383F31188BFF36F8FBFF34F8F62
:104E800001BEBEE7B8F1000F11D05FB900210EB12D
:104E900041F080614246294309F1040001F004FC1D
:104EA000002404E04FF08071F1E74FF0000801F0BA
:104EB00059FAB8F1000F12D048B94FF0E0234FF083
:104EC0008052C3F8042DBFF34F8FBFF36F8F02F0F2
:104ED00029F8044610F0007F04D024F07F442046D7
:104EE000BDE8F88300F03EF9D9F800403246294683
:104EF0002046FFF761FF20B11FB124EA0505C9F87C
:104F0000005000F051F9E8E770B50C460646A8B12C
:104F100014F07F4F08D04FF03F0383F31188BFF3A5
:104F20006F8FBFF34F8F01BE00F01CF9356825EA83
:104F30000404346000F038F9284670BD4FF03F0398
:104F400083F31188BFF36F8FBFF34F8F01BEDFE78D
:104F5000F8B50D460446A8B115F07F4F08D04FF0C4
:104F60003F0383F31188BFF36F8FBFF34F8F01BEF1
:104F700004F10C0601F078FE206923682B432360BE
:104F8000002714E04FF03F0383F31188BFF36F8FC6
:104F9000BFF34F8F01BEDFE7216832EA010105D17F
:104FA00011E0216841F0007101F05AFC2846B0423E
:104FB0000ED04568036823F07F4213F0806FEBD179
:104FC00021681142F2D013F0807FEAD01743E8E75E
:104FD000236823EA0703236001F0C4F92068F8BDC1
:104FE00000F1080343604FF0FF328260C360036149
:104FF00000230360704700230361704743684B60E0
:105000009A688A605160996008610368013303609F
:1050100070470369416882688A60416851605A68D4
:10502000824206D0002202611A68013A1A601868AA
:10503000704782685A60F5E730B40D68B5F1FF3FFC
:1050400011D000F108031C465B681A68AA42FAD91D
:1050500063684B6099608C6061600861036801332C
:10506000036030BC70470469F2E7000082B000239F
:1050700001930D4B1B68B3F1FF3F08D04FF03F0386
:1050800083F31188BFF36F8FBFF34F8F01BE4FF0D3
:105090003F0383F31188BFF36F8FBFF34F8F019BE3
:1050A000002BFCD002B07047AC2300080848006811
:1050B000006880F308884FF0000080F3148862B61F
:1050C00061B6BFF34F8FBFF36F8F00DF00BF0000EB
:1050D00008ED00E0DFF80C00016841F470010160A8
:1050E0007047000088ED00E008B54FF03F0383F300
:1050F0001188BFF36F8FBFF34F8F01F077F828B19E
:105100004FF0E0234FF08052C3F8042D002383F3C7
:10511000118808BD4FF0807340F8043C21F0010174
:1051200040F8081C054B40F80C3C40F8202C6FF070
:10513000020340F8243C4438704700BF6D50001013
:10514000074B19680868B0E8F04F80F30988BFF38F
:105150006F8F4FF0000080F311887047AFF300802D
:105160009C3900084FF03F0383F31188BFF36F8F22
:10517000BFF34F8F0B4A136801331360012B00D02C
:1051800070474FF0E023D3F8043D13F0FF0FF7D042
:105190004FF03F0383F31188BFF36F8FBFF34F8F3F
:1051A00001BEEDE7AC230008094B1B6843B94FF083
:1051B0003F0383F31188BFF36F8FBFF34F8F01BE9F
:1051C000034A1368013B13600BB983F311887047DE
:1051D000AC230008000000000000000000000000F8
:1051E000EFF30980BFF36F8F154B1A681EF0100F95
:1051F00008BF20ED108A20E9F04F10602DE909006A
:105200004FF03F0080F31188BFF34F8FBFF36F8FD4
:1052100001F074F94FF0000080F3118809BC19689F
:105220000868B0E8F04F1EF0100F08BFB0EC108A0D
:1052300080F30988BFF36F8F704700BFAFF3008022
:105240009C3900084FF0E022002313619361074B63
:105250001B680749A1FB03139B09013B536107230B
:105260001361044B9B68044ADA63704734230008D7
:10527000D34D621000ED00E0E950001030B583B06E
:105280004FF0E023D3F8002D3E4B9A421AD04FF056
:10529000E023D3F8002D3C4B9A421DD03B4B1A78AB
:1052A000D2B20192FF221A701B78DBB28DF8033064
:1052B0009DF8033003F03F03354A1370354B072246
:1052C0001A601DE04FF03F0383F31188BFF36F8F27
:1052D000BFF34F8F01BEDAE74FF03F0383F311882E
:1052E000BFF36F8FBFF34F8F01BED7E7294A136813
:1052F000013B13609DF803305B00DBB28DF8033097
:105300009DF8033013F0800FF0D1224B1B68042B63
:1053100008D04FF03F0383F31188BFF36F8FBFF3C3
:105320004F8F01BE1B4A13681B02136003F4E06336
:105330001360019BDBB2154A13704FF0E024D4F8E0
:10534000203D43F47F03C4F8203DD4F8203D43F0D2
:105350007F43C4F8203DFFF775FF00250E4B1D600D
:10536000FFF7B8FED4F8343F43F04043C4F8343F6D
:10537000FFF79CFE01F0C2F8FFF778FE284603B065
:1053800030BD00BF71C20F4170C20F4100E400E0A8
:105390004439000848390008AC230008EFF30583BE
:1053A0000F2B0FD9114A9B5CDBB2114A12789A423B
:1053B00008D94FF03F0383F31188BFF36F8FBFF31A
:1053C0004F8F01BE4FF0E023D3F80C3D03F4E063B0
:1053D000084A1268934208D94FF03F0383F31188BB
:1053E000BFF36F8FBFF34F8F01BE7047F0E300E054
:1053F00044390008483900084FF03F0383F311880F
:10540000BFF36F8FBFF34F8F01BEFEE74FF03F0337
:1054100083F31188BFF36F8FBFF34F8F01BEFEE799
:1054200010B5044601F020FC20460CF0A7FD044610
:1054300000F098FF0CB1204610BDFFF7DDFFFAE742
:1054400048B110B5044601F00FFC20460CF09EFD5B
:1054500000F088FF10BD70470346406A18B11B6B0F
:105460001868C0F10700704710B50446FFF77AFED0
:10547000A26BE36B9A4204D00024FFF795FE20460E
:1054800010BD0124F9E710B50446FFF76BFEA36BCE
:1054900023B90124FFF788FE204610BD0024F9E758
:1054A00070B504461546866B026C5AB903681BB189
:1054B00000200136A66370BD806801F07DFC0023EA
:1054C000A360F6E76DB940680CF042FD226C63689A
:1054D00013446360A268934219D32368636028462B
:1054E000E7E7C0680CF034FD226C5142E3689B1A78
:1054F000E3602268934202D2A3680B44E360022D6A
:1055000001D00020D5E726B1013E0020D1E7284692
:10551000CFE70020CDE70346026C6AB110B508461C
:10552000D9681144D9609C68A14201D31968D96037
:10553000D9680CF00DFD10BD704738B50546FFF772
:1055400011FE95F8454064B201E0013C64B2002CC4
:105550000ADD6B6A43B105F1240001F007F9002868
:10556000F3D001F035FAF0E7FF2385F84530FFF777
:105570001BFEFFF7F7FD95F8444064B201E0013CE3
:1055800064B2002C0ADD2B6943B105F1100001F073
:10559000EDF80028F3D001F01BFAF0E7FF2385F8BF
:1055A0004430FFF701FE38BDF0B585B00F460192DB
:1055B0001D46044690B1DFB1022D26D001F014FA49
:1055C00050B9019B43B14FF03F0383F31188BFF300
:1055D0006F8FBFF34F8F01BE002661E04FF03F0396
:1055E00083F31188BFF36F8FBFF34F8F01BEE2E7E4
:1055F000236C002BE0D04FF03F0383F31188BFF3FF
:105600006F8FBFF34F8F01BED6E7E36B012BD5D071
:105610004FF03F0383F31188BFF36F8FBFF34F8FBA
:1056200001BECBE72A4639462046FFF739FF636AB9
:105630007BB948B14FF0E0234FF08052C3F8042DFE
:10564000BFF34F8FBFF36F8FFFF7AEFD012005B0A3
:10565000F0BD04F1240001F089F80028F4D04FF0E7
:10566000E0234FF08052C3F8042DBFF34F8FBFF3F8
:105670006F8FE9E7FFF798FD0020E8E702A801F047
:1056800037FB012619E0002384F8443021E0002391
:1056900084F8453023E02046FFF74FFF00F062FE1C
:1056A000FFF760FDA26BE36B9A42BBD3022DB9D02A
:1056B000019B002BDED0002EE0D0FFF775FD01F03E
:1056C000D3FAFFF74FFD94F8440040B2B0F1FF3F2A
:1056D000D9D094F8450040B2B0F1FF3FD7D0FFF7E2
:1056E00063FD01A902A801F02DF9D8B92046FFF702
:1056F000BBFE0028CFD0019904F1100001F0DEFAC2
:105700002046FFF71AFF00F02DFE0028C8D14FF009
:10571000E0234FF08052C3F8042DBFF34F8FBFF347
:105720006F8FBDE72046FFF708FF00F01BFE00204B
:105730008DE738B5044630B1A56801F04FF98542D0
:105740000BD0002038BD4FF03F0383F31188BFF327
:105750006F8FBFF34F8F01BEEEE7E368013BE3605D
:105760000BB10120EEE71A4619462046FFF71CFF51
:105770000120E7E72DE9F8430E4691461D46044611
:10578000C8B116B3022D2DD0FFF708FEEFF3118735
:105790004FF03F0383F31188BFF36F8FBFF34F8F39
:1057A000A26BE36B9A422AD3022D28D0002087F304
:1057B0001188BDE8F8834FF03F0383F31188BFF3EE
:1057C0006F8FBFF34F8F01BEDBE7236C002BD9D067
:1057D0004FF03F0383F31188BFF36F8FBFF34F8FF9
:1057E00001BECFE7E36B012BCED04FF03F0383F335
:1057F0001188BFF36F8FBFF34F8F01BEC4E794F8DA
:1058000045804FFA88F8A36B2A4631462046FFF7B9
:1058100047FEB8F1FF3F0FD1636A0BB90120C6E71D
:1058200004F1240000F0A2FFF8B1B9F1000F1ED07E
:105830000120C9F80000BAE701F024FA804518D227
:10584000B8F17F0F07D008F101084FFA88F884F803
:1058500045800120ABE74FF03F0383F31188BFF38E
:105860006F8FBFF34F8F01BEEDE701209FE701204F
:105870009DE701209BE7F8B50E46044640B3236C34
:1058800043B14FF03F0383F31188BFF36F8FBFF332
:105890004F8F01BE23682BB3FFF780FDEFF3118517
:1058A0004FF03F0383F31188BFF36F8FBFF34F8F28
:1058B000A36BE26B9A4241D994F845707FB20133F1
:1058C000A363B7F1FF3F23D1636AC3B9012036E078
:1058D0004FF03F0383F31188BFF36F8FBFF34F8FF8
:1058E00001BECCE7A368002BD6D04FF03F0383F373
:1058F0001188BFF36F8FBFF34F8F01BECCE704F168
:10590000240000F033FFE8B1F6B10120306016E06A
:1059100001F0B8F9874219D27F2F05D001377FB245
:1059200084F8457001200AE04FF03F0383F31188AB
:10593000BFF36F8FBFF34F8F01BEEFE7002085F3FA
:105940001188F8BD0120FAE70120F8E70120F6E709
:10595000F0B585B00F460192044680B1CFB101F099
:1059600043F850B9019B43B14FF03F0383F31188D3
:10597000BFF36F8FBFF34F8F01BE002655E04FF08E
:105980003F0383F31188BFF36F8FBFF34F8F01BEC7
:10599000E4E7236C002BE2D04FF03F0383F3118840
:1059A000BFF36F8FBFF34F8F01BED8E73946204654
:1059B000FFF7B1FD013DA563236923B9FFF7F4FBB0
:1059C000012005B0F0BD04F1100000F0CFFE00286A
:1059D000F4D04FF0E0234FF08052C3F8042DBFF312
:1059E0004F8FBFF36F8FE9E7FFF7DEFB0020E8E79B
:1059F00002A801F07DF9012621E0002384F844305B
:105A000029E0002384F845302BE02046FFF795FD80
:105A100000F0A8FC09E02046FFF78FFD00F0A2FC93
:105A20002046FFF730FD00283FD1FFF79BFBA56B19
:105A3000002DBBD1019B002BD6D0002ED8D0FFF774
:105A4000B3FB01F011F9FFF78DFB94F844305BB222
:105A5000B3F1FF3FD1D094F845305BB2B3F1FF3FD3
:105A6000CFD0FFF7A1FB01A902A800F06BFF00282F
:105A7000D1D12046FFF707FD0028C6D0019904F1D7
:105A8000240001F01BF92046FFF757FD00F06AFCE7
:105A90000028CAD14FF0E0234FF08052C3F8042D04
:105AA000BFF34F8FBFF36F8FBFE7002089E770B55B
:105AB00084B001910446D8B1236C43B14FF03F0349
:105AC00083F31188BFF36F8FBFF34F8F01BE00F0D8
:105AD0008BFF50B9019B43B14FF03F0383F3118813
:105AE000BFF36F8FBFF34F8F01BE002635465DE0D9
:105AF0004FF03F0383F31188BFF36F8FBFF34F8FD6
:105B000001BED9E7013BA363236833B1236943B9DD
:105B1000FFF74AFB012004B070BD01F00FFAA0604E
:105B2000F4E704F1100000F021FE0028F0D04FF05F
:105B3000E0234FF08052C3F8042DBFF34F8FBFF323
:105B40006F8FE5E746B14FF03F0383F31188BFF352
:105B50006F8FBFF34F8F01BEFFF726FB0020DAE700
:105B600002A801F0C5F801252AE0002384F844309A
:105B700032E0002384F8453034E0FFF7F3FAA06800
:105B800001F0C2F80646FFF70FFB3BE02046FFF7A7
:105B9000D4FC00F0E7FB09E02046FFF7CEFC00F064
:105BA000E1FB2046FFF76FFC002842D1FFF7DAFA4D
:105BB000A36B002BA6D1019B002BC3D0002DCFD00F
:105BC000FFF7F2FA01F050F8FFF7CCFA94F84430FE
:105BD0005BB2B3F1FF3FC8D094F845305BB2B3F18C
:105BE000FF3FC6D0FFF7E0FA01A902A800F0AAFE25
:105BF0000028D1D12046FFF746FC0028C6D02368F4
:105C0000002BBAD0019904F1240001F057F8204686
:105C1000FFF793FC00F0A6FB0028C7D14FF0E0236C
:105C20004FF08052C3F8042DBFF34F8FBFF36F8F37
:105C3000BCE70EB900206EE7FFF794FA2046FFF7A5
:105C40000BFC0146A06801F00DF9FFF7ADFAF1E792
:105C500070B50D46044668B1A66800F0BFFE8642E6
:105C600012D029462046FFF722FF88B1E3680133AE
:105C7000E3600DE04FF03F0383F31188BFF36F8FB4
:105C8000BFF34F8F01BEE7E7E3680133E360012014
:105C900070BD10B5044630B1FFF764FAA46BFFF78E
:105CA00083FA204610BD4FF03F0383F31188BFF302
:105CB0006F8FBFF34F8F01BEEEE770B504460D4600
:105CC0001646FFF74FFA94F844305BB2B3F1FF3F4A
:105CD0000DD094F845305BB2B3F1FF3F0BD0FFF726
:105CE00063FAA36B5BB12046FFF727FC70BD00236E
:105CF00084F84430EDE7002384F84530EFE732467E
:105D0000294604F1240000F007FDECE738B50D4604
:105D1000044698B13CB1E36B2BB1226C0021A3FB8C
:105D20000232AAB9B1B14FF03F0383F31188BFF338
:105D30006F8FBFF34F8F01BE002038BD4FF03F0380
:105D400083F31188BFF36F8FBFF34F8F01BEE1E77D
:105D50000121E7E7FFF706FA2368E26B216C01FBFC
:105D60000230A0600020A0636360013A02FB0133AF
:105D7000E360FF2384F8443084F84530B5B92369E3
:105D80001BB9FFF711FA0120D7E704F1100000F06A
:105D9000EDFC0028F5D04FF0E0234FF08052C3F81F
:105DA000042DBFF34F8FBFF36F8FEAE704F11000AC
:105DB000FFF716F904F12400FFF712F9E1E738B50F
:105DC0001D46049C0B4649B92460E063236401210D
:105DD0002046FFF79BFF84F84C5038BD2260F4E763
:105DE00010B584B01C46EBB140B33CB302B129B34B
:105DF00012B350230393039B502B08D04FF03F0363
:105E000083F31188BFF36F8FBFF34F8F01BE039BE6
:105E1000012384F8463000949DF81830FFF7CFFF37
:105E2000204615E04FF03F0383F31188BFF36F8FD7
:105E3000BFF34F8F01BED7E70029DAD04FF03F0301
:105E400083F31188BFF36F8FBFF34F8F01BE002024
:105E500004B010BDF0B583B0F8B10C461746064645
:105E60000023A0FB0412B2B9BBB904FB06F010F189
:105E7000510F12D85030FFF7D3FA0546B8B10023BE
:105E800080F8463000903B4600F1500221463046F3
:105E9000FFF795FF0BE00123E6E74FF03F0383F3A5
:105EA0001188BFF36F8FBFF34F8F01BE00252846C7
:105EB00003B0F0BD10B4044618B191B10020034600
:105EC00013E04FF03F0383F31188BFF36F8FBFF3ED
:105ED0004F8F01BEF1E70E4800EBC30008B101602F
:105EE00044605DF8044B70470133092BF6D8084A2B
:105EF00002EBC3025268A242EDD00028F4D1044A5A
:105F000052F83320002AEFD1014800EBC300EBE741
:105F10004C390008074B1B681B6823B9064B4FF030
:105F2000FF321A607047034B1B68DB681A68024B2C
:105F30001A607047A0390008743A000810B504468A
:105F4000FFF710F9294A136801331360284B1B68C7
:105F50005BB1284B1B686BB9254B1B68DA6AE36A97
:105F60009A4207D8224B1C6004E0214B1C60136846
:105F7000012B37D0204A1368013313606364E36A4E
:105F80001E4A1268934201D91C4A13601C4A03EB53
:105F9000830302EB83035B68A3609868E060211DC4
:105FA00041609960E36A03EB8301880002EB8101A1
:105FB0006161115801311150FFF7F6F80D4B1B6864
:105FC0007BB10B4B1B68DA6AE36A9A4209D24FF045
:105FD000E0234FF08052C3F8042DBFF34F8FBFF37F
:105FE0006F8F10BD00F072FDC4E700BF343A0008A7
:105FF0009C390008943A0008403A0008443A0008E6
:10600000A839000808B500F0B7FD074B1B68012B45
:10601000F9D94FF0E0234FF08052C3F8042DBFF3BD
:106020004F8FBFF36F8FEEE7A839000870B50446B5
:106030000D461E4B1E681E4B18680430FEF7E9FF24
:10604000B4F1FF3F0DD03444194B1B685C60A6428D
:106050001DD9184B1868164B19680431FEF7ECFF70
:1060600070BD002DEFD0144A5168114B1868816043
:1060700018688C68C4601868043060601868043060
:1060800088601B685A61136801331360E8E70B4BA3
:106090001868074B19680431FEF7CEFF084B1B68E0
:1060A000A342DDD9064B1C60DAE700BFC03A000806
:1060B0009C390008A4390008983A0008A039000863
:1060C000743A00082DE9F04385B007468846144627
:1060D0001E469000FFF7A4F920B38146BC20FFF7CD
:1060E0009FF90546D0B1BC2200210CF0F3FFC5F8A2
:1060F0003090E5B1002385F8B930039302950D9BEC
:1061000001930C9B0093334622464146384600F0EB
:106110007BFC2846FFF712FF012005E04846FFF709
:106120008FF9E6E74FF0FF3005B0BDE8F0834FF0A0
:10613000FF30F9E710B588B000240594069407AA4B
:1061400006A905A8FEF7F8FD059B0293069B01939F
:1061500000942346079A1C491C4800F033FD1C4B51
:10616000186050B101F0B4F8012808D0B0F1FF3F39
:106170001FD0184B1B6808B010BD0020F4E74FF08B
:106180003F0383F31188BFF36F8FBFF34F8F124B21
:106190001B686833114A1360114B4FF0FF321A60CD
:1061A000104B01221A60104B00221A60FFF766F8AC
:1061B000DFE74FF03F0383F31188BFF36F8FBFF327
:1061C0004F8F01BED5E700BFD05A01100560001007
:1061D000703A0008B02300089C390008B824000871
:1061E000743A0008943A0008C03A0008524B1B6801
:1061F000002B40F0998070B5504B1C6801341C6036
:10620000C4B94F4B1B681B6843B14FF03F0383F386
